{
  "_format": "hh-sol-artifact-1",
  "contractName": "CookiePortal",
  "sourceName": "contracts/CookiePortal.sol",
  "abi": [
    {
      "inputs": [],
      "stateMutability": "payable",
      "type": "constructor"
    },
    {
      "anonymous": false,
      "inputs": [
        {
          "indexed": true,
          "internalType": "address",
          "name": "from",
          "type": "address"
        },
        {
          "indexed": false,
          "internalType": "uint256",
          "name": "timestamp",
          "type": "uint256"
        },
        {
          "indexed": false,
          "internalType": "string",
          "name": "message",
          "type": "string"
        }
      ],
      "name": "NewCookie",
      "type": "event"
    },
    {
      "inputs": [
        {
          "internalType": "string",
          "name": "_message",
          "type": "string"
        }
      ],
      "name": "cookie",
      "outputs": [],
      "stateMutability": "nonpayable",
      "type": "function"
    },
    {
      "inputs": [],
      "name": "getAllCookies",
      "outputs": [
        {
          "components": [
            {
              "internalType": "address",
              "name": "sender",
              "type": "address"
            },
            {
              "internalType": "string",
              "name": "message",
              "type": "string"
            },
            {
              "internalType": "uint256",
              "name": "timestamp",
              "type": "uint256"
            }
          ],
          "internalType": "struct CookiePortal.Cookie[]",
          "name": "",
          "type": "tuple[]"
        }
      ],
      "stateMutability": "view",
      "type": "function"
    },
    {
      "inputs": [],
      "name": "getTotalCookies",
      "outputs": [
        {
          "internalType": "uint256",
          "name": "",
          "type": "uint256"
        }
      ],
      "stateMutability": "view",
      "type": "function"
    },
    {
      "inputs": [
        {
          "internalType": "uint256",
          "name": "number",
          "type": "uint256"
        }
      ],
      "name": "random",
      "outputs": [
        {
          "internalType": "uint256",
          "name": "",
          "type": "uint256"
        }
      ],
      "stateMutability": "view",
      "type": "function"
    }
  ],
  "bytecode": "0x608060405262000033604051806060016040528060268152602001620012ab602691396200003960201b620005241760201c565b620001cd565b620000d98160405160240162000050919062000146565b6040516020818303038152906040527f41304fac000000000000000000000000000000000000000000000000000000007bffffffffffffffffffffffffffffffffffffffffffffffffffffffff19166020820180517bffffffffffffffffffffffffffffffffffffffffffffffffffffffff8381831617835250505050620000dc60201b60201c565b50565b60008151905060006a636f6e736f6c652e6c6f679050602083016000808483855afa5050505050565b600062000112826200016a565b6200011e818562000175565b93506200013081856020860162000186565b6200013b81620001bc565b840191505092915050565b6000602082019050818103600083015262000162818462000105565b905092915050565b600081519050919050565b600082825260208201905092915050565b60005b83811015620001a657808201518184015260208101905062000189565b83811115620001b6576000848401525b50505050565b6000601f19601f8301169050919050565b6110ce80620001dd6000396000f3fe608060405234801561001057600080fd5b506004361061004c5760003560e01c8063284bf88414610051578063b863bd371461006f578063e1c0eecc1461009f578063fe7d0f2c146100bd575b600080fd5b6100596100d9565b6040516100669190610c28565b60405180910390f35b61008960048036038101906100849190610892565b610124565b6040516100969190610c28565b60405180910390f35b6100a7610166565b6040516100b49190610b2f565b60405180910390f35b6100d760048036038101906100d29190610849565b6102b7565b005b600061011c6040518060400160405280601681526020017f596f75206861766520256420636f6f6b696528732921000000000000000000008152506000546105bd565b600054905090565b60008142443360405160200161013c93929190610af2565b6040516020818303038152906040528051906020012060001c61015f9190610e9f565b9050919050565b60606001805480602002602001604051908101604052809291908181526020016000905b828210156102ae57838290600052602060002090600302016040518060600160405290816000820160009054906101000a900473ffffffffffffffffffffffffffffffffffffffff1673ffffffffffffffffffffffffffffffffffffffff1673ffffffffffffffffffffffffffffffffffffffff16815260200160018201805461021390610e0e565b80601f016020809104026020016040519081016040528092919081815260200182805461023f90610e0e565b801561028c5780601f106102615761010080835404028352916020019161028c565b820191906000526020600020905b81548152906001019060200180831161026f57829003601f168201915b505050505081526020016002820154815250508152602001906001019061018a565b50505050905090565b60016000546102c69190610d3a565b6000819055506102ef604051806060016040528060228152602001611077602291393383610659565b600160405180606001604052803373ffffffffffffffffffffffffffffffffffffffff16815260200183815260200142815250908060018154018082558091505060019003906000526020600020906003020160009091909190915060008201518160000160006101000a81548173ffffffffffffffffffffffffffffffffffffffff021916908373ffffffffffffffffffffffffffffffffffffffff16021790555060208201518160010190805190602001906103ae929190610721565b5060408201518160020155505060006103c76064610124565b9050600a8110156104d0576000662386f26fc10000905047811115610421576040517f08c379a000000000000000000000000000000000000000000000000000000000815260040161041890610c08565b60405180910390fd5b60003373ffffffffffffffffffffffffffffffffffffffff168260405161044790610add565b60006040518083038185875af1925050503d8060008114610484576040519150601f19603f3d011682016040523d82523d6000602084013e610489565b606091505b50509050806104cd576040517f08c379a00000000000000000000000000000000000000000000000000000000081526004016104c490610be8565b60405180910390fd5b50505b3373ffffffffffffffffffffffffffffffffffffffff167f8d9c042c1a770af3c18eed62da3f63bfc0df708790693f3c66a276b530c1f7214284604051610518929190610c43565b60405180910390a25050565b6105ba816040516024016105389190610b51565b6040516020818303038152906040527f41304fac000000000000000000000000000000000000000000000000000000007bffffffffffffffffffffffffffffffffffffffffffffffffffffffff19166020820180517bffffffffffffffffffffffffffffffffffffffffffffffffffffffff83818316178352505050506106f8565b50565b61065582826040516024016105d3929190610bb8565b6040516020818303038152906040527f9710a9d0000000000000000000000000000000000000000000000000000000007bffffffffffffffffffffffffffffffffffffffffffffffffffffffff19166020820180517bffffffffffffffffffffffffffffffffffffffffffffffffffffffff83818316178352505050506106f8565b5050565b6106f383838360405160240161067193929190610b73565b6040516020818303038152906040527fe0e9ad4f000000000000000000000000000000000000000000000000000000007bffffffffffffffffffffffffffffffffffffffffffffffffffffffff19166020820180517bffffffffffffffffffffffffffffffffffffffffffffffffffffffff83818316178352505050506106f8565b505050565b60008151905060006a636f6e736f6c652e6c6f679050602083016000808483855afa5050505050565b82805461072d90610e0e565b90600052602060002090601f01602090048101928261074f5760008555610796565b82601f1061076857805160ff1916838001178555610796565b82800160010185558215610796579182015b8281111561079557825182559160200191906001019061077a565b5b5090506107a391906107a7565b5090565b5b808211156107c05760008160009055506001016107a8565b5090565b60006107d76107d284610c98565b610c73565b9050828152602081018484840111156107f3576107f2610f91565b5b6107fe848285610dcc565b509392505050565b600082601f83011261081b5761081a610f8c565b5b813561082b8482602086016107c4565b91505092915050565b6000813590506108438161105f565b92915050565b60006020828403121561085f5761085e610f9b565b5b600082013567ffffffffffffffff81111561087d5761087c610f96565b5b61088984828501610806565b91505092915050565b6000602082840312156108a8576108a7610f9b565b5b60006108b684828501610834565b91505092915050565b60006108cb8383610a58565b905092915050565b6108dc81610d90565b82525050565b6108eb81610d90565b82525050565b6109026108fd82610d90565b610e71565b82525050565b600061091382610cd9565b61091d8185610cfc565b93508360208202850161092f85610cc9565b8060005b8581101561096b578484038952815161094c85826108bf565b945061095783610cef565b925060208a01995050600181019050610933565b50829750879550505050505092915050565b600061098882610ce4565b6109928185610d18565b93506109a2818560208601610ddb565b6109ab81610fa0565b840191505092915050565b60006109c182610ce4565b6109cb8185610d29565b93506109db818560208601610ddb565b6109e481610fa0565b840191505092915050565b60006109fc602783610d29565b9150610a0782610fbe565b604082019050919050565b6000610a1f602483610d29565b9150610a2a8261100d565b604082019050919050565b6000610a42600083610d0d565b9150610a4d8261105c565b600082019050919050565b6000606083016000830151610a7060008601826108d3565b5060208301518482036020860152610a88828261097d565b9150506040830151610a9d6040860182610aa8565b508091505092915050565b610ab181610dc2565b82525050565b610ac081610dc2565b82525050565b610ad7610ad282610dc2565b610e95565b82525050565b6000610ae882610a35565b9150819050919050565b6000610afe8286610ac6565b602082019150610b0e8285610ac6565b602082019150610b1e82846108f1565b601482019150819050949350505050565b60006020820190508181036000830152610b498184610908565b905092915050565b60006020820190508181036000830152610b6b81846109b6565b905092915050565b60006060820190508181036000830152610b8d81866109b6565b9050610b9c60208301856108e2565b8181036040830152610bae81846109b6565b9050949350505050565b60006040820190508181036000830152610bd281856109b6565b9050610be16020830184610ab7565b9392505050565b60006020820190508181036000830152610c01816109ef565b9050919050565b60006020820190508181036000830152610c2181610a12565b9050919050565b6000602082019050610c3d6000830184610ab7565b92915050565b6000604082019050610c586000830185610ab7565b8181036020830152610c6a81846109b6565b90509392505050565b6000610c7d610c8e565b9050610c898282610e40565b919050565b6000604051905090565b600067ffffffffffffffff821115610cb357610cb2610f5d565b5b610cbc82610fa0565b9050602081019050919050565b6000819050602082019050919050565b600081519050919050565b600081519050919050565b6000602082019050919050565b600082825260208201905092915050565b600081905092915050565b600082825260208201905092915050565b600082825260208201905092915050565b6000610d4582610dc2565b9150610d5083610dc2565b9250827fffffffffffffffffffffffffffffffffffffffffffffffffffffffffffffffff03821115610d8557610d84610ed0565b5b828201905092915050565b6000610d9b82610da2565b9050919050565b600073ffffffffffffffffffffffffffffffffffffffff82169050919050565b6000819050919050565b82818337600083830152505050565b60005b83811015610df9578082015181840152602081019050610dde565b83811115610e08576000848401525b50505050565b60006002820490506001821680610e2657607f821691505b60208210811415610e3a57610e39610f2e565b5b50919050565b610e4982610fa0565b810181811067ffffffffffffffff82111715610e6857610e67610f5d565b5b80604052505050565b6000610e7c82610e83565b9050919050565b6000610e8e82610fb1565b9050919050565b6000819050919050565b6000610eaa82610dc2565b9150610eb583610dc2565b925082610ec557610ec4610eff565b5b828206905092915050565b7f4e487b7100000000000000000000000000000000000000000000000000000000600052601160045260246000fd5b7f4e487b7100000000000000000000000000000000000000000000000000000000600052601260045260246000fd5b7f4e487b7100000000000000000000000000000000000000000000000000000000600052602260045260246000fd5b7f4e487b7100000000000000000000000000000000000000000000000000000000600052604160045260246000fd5b600080fd5b600080fd5b600080fd5b600080fd5b6000601f19601f8301169050919050565b60008160601b9050919050565b7f4661696c656420746f207769746864726177206d6f6e65792066726f6d20636f60008201527f6e74726163742e00000000000000000000000000000000000000000000000000602082015250565b7f436f6e747261637420646f6573206e6f74206861766520656e6f75676820657460008201527f6865722100000000000000000000000000000000000000000000000000000000602082015250565b50565b61106881610dc2565b811461107357600080fd5b5056fe25732073656e7420796f75206120636f6f6b696520772f206d657373616765202573a2646970667358221220c9762cfa5c2d27e46eb3937384e8029e14667d0bbf6fa18ead0167b2dc97f95f64736f6c63430008070033596f20796f2c204920616d206120636f6e747261637420616e64204920616d20736d6172742e",
  "linkReferences": {},
  "deployedLinkReferences": {}
}